:0400000002002132A7
:03000B000200FBF5
:0100130032BA
:03001B0002066773
:10007A00E4F532F533F534F535752BFFD20002007D
:01008A001E57
:03001E0002067067
:10008B00AF82EF600B7E7BEE14FDFE70FA1F80F2E9
:10009B0022AF82C374808FF063F08095F05042C220
:1000AB00D575F002EF30E704B2D5F404A430D50ACD
:1000BB00F42401C5F0F43400C5F0FDAEF024DDF5F9
:1000CB0082EE3407F583E493FC8C2C8C8DED24DDD0
:1000DB00FDEE3407FE8D828E83A3E493FE8E2D8E70
:1000EB008BC374808FF063F08095F09200928E2218
:1000FB00C021C0E0C0F0C082C083C007C006C005ED
:10010B00C004C003C002C001C000C0D075D008300D
:10011B0090030201D8C37482852EF063F08095F0B2
:10012B00E433FFB40100E433252EFF8F2EBF020210
:10013B0080030201DBD20075260F75280CD2977550
:10014B00103C751100852982852A8375D000120712
:10015B005A75D008AE8275103C75110085298285C1
:10016B002A83C00E75D00012079075D008AD82AFF0
:10017B0083D00EC2D575F00AED30E704B2D5F40486
:10018B008430D502F404F52575F00AEDC2D530E7BD
:10019B0004D2D5F40484E5F030D502F404F524C27E
:1001AB00D575F00AEE30E704B2D5F4048430D502ED
:1001BB00F404F52375F00AEEC2D530E704D2D5F47A
:1001CB000484E5F030D502F404F5228003752E008B
:1001DB003091030202BDC37482852FF063F08095CA
:1001EB00F0E433FFB40100E433252FFF8F2FBF0260
:1001FB000280030202C020000B75292C752A0175A1
:10020B002B008020C3E52994D4E52A6480948D507B
:10021B000D743C2529F529E4352AF52A8006752924
:10022B000F752A0E75103C751100852982852A835E
:10023B0075D00012075A75D008AE8275103C751137
:10024B0000852982852A83C00E75D0001207907510
:10025B00D008AD82AF83D00EC2D575F00AED30E772
:10026B0004B2D5F4048430D502F404F52575F00AF4
:10027B00EDC2D530E704D2D5F40484E5F030D502D5
:10028B00F404F524C2D575F00AEE30E704B2D5F4C8
:10029B00048430D502F404F52375F00AEEC2D53090
:1002AB00E704D2D5F40484E5F030D502F404F5224A
:1002BB008003752F0030920302039FC37482853035
:1002CB00F063F08095F0E433FFB40100E4332530A4
:1002DB00FF8F30BF020280030203A220000B75299F
:1002EB0058752A02752B00801DC3743C95297480A8
:1002FB00852AF063F08095F0500CE52924C4F5298C
:10030B00E52A34FFF52A75103C7511008529828585
:10031B002A8375D00012075A75D008AE8275103C2F
:10032B00751100852982852A83C00E75D0001207AE
:10033B009075D008AD82AF83D00EC2D575F00AEDA3
:10034B0030E704B2D5F4048430D502F404F52575F6
:10035B00F00AEDC2D530E704D2D5F40484E5F030D1
:10036B00D502F404F524C2D575F00AEE30E704B2D9
:10037B00D5F4048430D502F404F52375F00AEEC2EB
:10038B00D530E704D2D5F40484E5F030D502F4047B
:10039B00F5228003753000309303020484C374820A
:1003AB008531F063F08095F0E433FFB40100E43362
:1003BB002531FF8F31BF0202800302048720000B1F
:1003CB007529B0752A04752B0080207528007526B9
:1003DB000FC200C3E495297480852AF063F08095E1
:1003EB00F050047F6380027FFF8F2B75103C7511DB
:1003FB0000852982852A8375D00012075A75D0088B
:10040B00AE8275103C751100852982852A83C00E3A
:10041B0075D00012079075D008AD82AF83D00EC295
:10042B00D575F00AED30E704B2D5F4048430D5026B
:10043B00F404F52575F00AEDC2D530E704D2D5F4F6
:10044B000484E5F030D502F404F524C2D575F00A26
:10045B00EE30E704B2D5F4048430D502F404F5236E
:10046B0075F00AEEC2D530E704D2D5F40484E5F07A
:10047B0030D502F404F522800375310030000302FD
:10048B000556C37480852BF063F08095F0500515ED
:10049B002B020556E52B6003020556152974FFB593
:1004AB002902152AE529452A7010752BFFD297755D
:1004BB00270575260F75280F8005752B63B2977569
:1004CB00103C751100852982852A8375D00012078F
:1004DB005A75D008AE8275103C751100852982853E
:1004EB002A83C00E75D00012079075D008AD82AF6D
:1004FB0083D00EC2D575F00AED30E704B2D5F40403
:10050B008430D502F404F52575F00AEDC2D530E739
:10051B0004D2D5F40484E5F030D502F404F524C2FA
:10052B00D575F00AEE30E704B2D5F4048430D50269
:10053B00F404F52375F00AEEC2D530E704D2D5F4F6
:10054B000484E5F030D502F404F522C2D575F0022F
:10055B00E52730E704B2D5F404A430D50AF424011E
:10056B00C5F0F43400C5F024EDFE740735F0FF8EB2
:10057B00828F83A3E493FD30E7030206208E828FE4
:10058B0083E493FE3395E0FFC3E5329EE53364804D
:10059B008FF063F08095F040740527E4F532F53366
:1005AB00C2D575F002E52730E704B2D5F404A430C8
:1005BB00D50AF42401C5F0F43400C5F024EDFE7423
:1005CB000735F0FF8E828F83A3E493F58275D000FD
:1005DB0012009C75D008C2D575F002E52730E704F0
:1005EB00B2D5F404A430D50AF42401C5F0F43400D8
:1005FB00C5F024EDFE740735F0FF8E828F83A3E4E4
:10060B0093FF30E71075280075260F80080532E43C
:10061B00B532020533E5286020C3E5349432E53565
:10062B0064809480400BE5286226E4F534F5358030
:10063B00080534E4B534020535758CD8758AF0D0CD
:10064B00D0D000D001D002D003D004D005D006D03A
:10065B0007D083D082D0F0D0E0D02132B296852C57
:10066B008D852D8B3275260F758911758CD8758AF2
:10067B00F0D2AFA2AF92ABA2AB92A9D28C75A0FF76
:10068B007590FFD2977527017F0075A0FF8FF0053E
:10069B00F0E5263392D2E5268003A2D213D5F0FAE9
:1006AB0030E00EEF2422F9E7FE9007CC93F5808023
:1006BB00037580008FF005F07401800225E0D5F002
:1006CB00FBF4F5A0758201C00712008BD0070FC396
:0906DB00EF6480948440B380AF09
:1007CC003F065B4F666D7D077F6F777C395E797175
:1007DC00400000FC44FCACFD09FD34FD82FDC8FE6C
:1007EC000600FF00000401040500FF0000280105BD
:1007FC000028010500280505002805050028060528
:10080C0000280605005005050028040500280405ED
:10081C00002803050028030500280205002802050E
:10082C0000500105002805050028050500280405D1
:10083C0000280405002803050028030500500205C4
:10084C0000280505002805050028040500280405D6
:10085C0000280305002803050050020500280105A7
:10086C0000280105002805050028050500280605B7
:10087C00002806050050050500280405002804057D
:10088C00002803050028030500280205002802059E
:07089C00005001050000FF00
:06005000E478FFF6D8FD84
:10002E007900E94400601B7A009008A3780175A05E
:10003E0000E493F2A308B8000205A0D9F4DAF27531
:02004E00A0FF11
:1006E400E510451160467A01E51025E0F510E511A5
:1006F400334012F511E5829510E583951140030A04
:1007040080E6C3E51113F511E51013F510C3E58276
:100714009510F5F0E58395114005F58385F082C3C6
:0D072400E51113F511E51013F510DAE122CF
:100056007800E84400600A790175A000E4F309D845
:10006600FC7800E84400600C7900900001E4F0A3FD
:04007600D8FCD9FADF
:100731007A10E4FBFCE58225E0F582E58333F5835D
:10074100EB33FBEC33FCEB9510F5F0EC9511400627
:09075100FCABF0438201DADD2269
:0D0021007581351207C8E582600302001EDC
:10075A00C2D5E58330E70DD2D5E4C39582F582E4AC
:10076A009583F583E51130E70BE4C39510F510E4A2
:10077A009511F5111206E430D50BE4C39582F58282
:10078A00E49583F58322C2D5E58330E70DD2D5E41B
:10079A00C39582F582E49583F583E51130E70DB2BE
:1007AA00D5E4C39510F510E49511F511120731300F
:1007BA00D50BE4C39582F582E49583F5832275828D
:0207CA0000220B
:00000001FF
